{
    "_format": "hh-sol-artifact-1",
    "contractName": "ValueAttestation",
    "sourceName": "contracts/ValueAttestation.sol",
    "abi": [
        {
            "anonymous": false,
            "inputs": [
                {
                    "indexed": true,
                    "internalType": "address",
                    "name": "previousOwner",
                    "type": "address"
                },
                {
                    "indexed": true,
                    "internalType": "address",
                    "name": "newOwner",
                    "type": "address"
                }
            ],
            "name": "OwnershipTransferred",
            "type": "event"
        },
        {
            "inputs": [
                {
                    "components": [
                        {
                            "internalType": "uint256",
                            "name": "id",
                            "type": "uint256"
                        },
                        {
                            "internalType": "uint256",
                            "name": "timestamp",
                            "type": "uint256"
                        },
                        {
                            "internalType": "uint256",
                            "name": "valueId",
                            "type": "uint256"
                        },
                        {
                            "internalType": "bool",
                            "name": "isPositive",
                            "type": "bool"
                        }
                    ],
                    "internalType": "struct ValueAttestation.Attestation",
                    "name": "newAttestation",
                    "type": "tuple"
                }
            ],
            "name": "addAttestation",
            "outputs": [],
            "stateMutability": "nonpayable",
            "type": "function"
        },
        {
            "inputs": [
                {
                    "internalType": "uint256",
                    "name": "",
                    "type": "uint256"
                }
            ],
            "name": "attestations",
            "outputs": [
                {
                    "internalType": "uint256",
                    "name": "id",
                    "type": "uint256"
                },
                {
                    "internalType": "uint256",
                    "name": "timestamp",
                    "type": "uint256"
                },
                {
                    "internalType": "uint256",
                    "name": "valueId",
                    "type": "uint256"
                },
                {
                    "internalType": "bool",
                    "name": "isPositive",
                    "type": "bool"
                }
            ],
            "stateMutability": "view",
            "type": "function"
        },
        {
            "inputs": [],
            "name": "getAttestations",
            "outputs": [
                {
                    "components": [
                        {
                            "internalType": "uint256",
                            "name": "id",
                            "type": "uint256"
                        },
                        {
                            "internalType": "uint256",
                            "name": "timestamp",
                            "type": "uint256"
                        },
                        {
                            "internalType": "uint256",
                            "name": "valueId",
                            "type": "uint256"
                        },
                        {
                            "internalType": "bool",
                            "name": "isPositive",
                            "type": "bool"
                        }
                    ],
                    "internalType": "struct ValueAttestation.Attestation[]",
                    "name": "",
                    "type": "tuple[]"
                }
            ],
            "stateMutability": "view",
            "type": "function"
        },
        {
            "inputs": [],
            "name": "owner",
            "outputs": [
                {
                    "internalType": "address",
                    "name": "",
                    "type": "address"
                }
            ],
            "stateMutability": "view",
            "type": "function"
        },
        {
            "inputs": [],
            "name": "renounceOwnership",
            "outputs": [],
            "stateMutability": "nonpayable",
            "type": "function"
        },
        {
            "inputs": [
                {
                    "internalType": "address",
                    "name": "newOwner",
                    "type": "address"
                }
            ],
            "name": "transferOwnership",
            "outputs": [],
            "stateMutability": "nonpayable",
            "type": "function"
        }
    ],
    "bytecode": "0x608060405234801561001057600080fd5b5061002d61002261003260201b60201c565b61003a60201b60201c565b6100fe565b600033905090565b60008060009054906101000a900473ffffffffffffffffffffffffffffffffffffffff169050816000806101000a81548173ffffffffffffffffffffffffffffffffffffffff021916908373ffffffffffffffffffffffffffffffffffffffff1602179055508173ffffffffffffffffffffffffffffffffffffffff168173ffffffffffffffffffffffffffffffffffffffff167f8be0079c531659141344cd1fd0a4f28419497f9722a3daafe3b4186f6b6457e060405160405180910390a35050565b610a958061010d6000396000f3fe608060405234801561001057600080fd5b50600436106100625760003560e01c806301daf26b146100675780634b0245d61461009a578063615d706b146100b8578063715018a6146100d45780638da5cb5b146100de578063f2fde38b146100fc575b600080fd5b610081600480360381019061007c9190610487565b610118565b60405161009194939291906104de565b60405180910390f35b6100a2610165565b6040516100af9190610645565b60405180910390f35b6100d260048036038101906100cd919061068b565b6101fd565b005b6100dc610242565b005b6100e6610256565b6040516100f391906106f9565b60405180910390f35b61011660048036038101906101119190610740565b61027f565b005b6001818154811061012857600080fd5b90600052602060002090600402016000915090508060000154908060010154908060020154908060030160009054906101000a900460ff16905084565b60606001805480602002602001604051908101604052809291908181526020016000905b828210156101f457838290600052602060002090600402016040518060800160405290816000820154815260200160018201548152602001600282015481526020016003820160009054906101000a900460ff16151515158152505081526020019060010190610189565b50505050905090565b610205610302565b6001819080600181540180825580915050600190039060005260206000209060040201600090919091909150818161023d9190610942565b505050565b61024a610302565b6102546000610380565b565b60008060009054906101000a900473ffffffffffffffffffffffffffffffffffffffff16905090565b610287610302565b600073ffffffffffffffffffffffffffffffffffffffff168173ffffffffffffffffffffffffffffffffffffffff16036102f6576040517f08c379a00000000000000000000000000000000000000000000000000000000081526004016102ed906109d3565b60405180910390fd5b6102ff81610380565b50565b61030a610444565b73ffffffffffffffffffffffffffffffffffffffff16610328610256565b73ffffffffffffffffffffffffffffffffffffffff161461037e576040517f08c379a000000000000000000000000000000000000000000000000000000000815260040161037590610a3f565b60405180910390fd5b565b60008060009054906101000a900473ffffffffffffffffffffffffffffffffffffffff169050816000806101000a81548173ffffffffffffffffffffffffffffffffffffffff021916908373ffffffffffffffffffffffffffffffffffffffff1602179055508173ffffffffffffffffffffffffffffffffffffffff168173ffffffffffffffffffffffffffffffffffffffff167f8be0079c531659141344cd1fd0a4f28419497f9722a3daafe3b4186f6b6457e060405160405180910390a35050565b600033905090565b600080fd5b6000819050919050565b61046481610451565b811461046f57600080fd5b50565b6000813590506104818161045b565b92915050565b60006020828403121561049d5761049c61044c565b5b60006104ab84828501610472565b91505092915050565b6104bd81610451565b82525050565b60008115159050919050565b6104d8816104c3565b82525050565b60006080820190506104f360008301876104b4565b61050060208301866104b4565b61050d60408301856104b4565b61051a60608301846104cf565b95945050505050565b600081519050919050565b600082825260208201905092915050565b6000819050602082019050919050565b61055881610451565b82525050565b610567816104c3565b82525050565b608082016000820151610583600085018261054f565b506020820151610596602085018261054f565b5060408201516105a9604085018261054f565b5060608201516105bc606085018261055e565b50505050565b60006105ce838361056d565b60808301905092915050565b6000602082019050919050565b60006105f282610523565b6105fc818561052e565b93506106078361053f565b8060005b8381101561063857815161061f88826105c2565b975061062a836105da565b92505060018101905061060b565b5085935050505092915050565b6000602082019050818103600083015261065f81846105e7565b905092915050565b600080fd5b60006080828403121561068257610681610667565b5b81905092915050565b6000608082840312156106a1576106a061044c565b5b60006106af8482850161066c565b91505092915050565b600073ffffffffffffffffffffffffffffffffffffffff82169050919050565b60006106e3826106b8565b9050919050565b6106f3816106d8565b82525050565b600060208201905061070e60008301846106ea565b92915050565b61071d816106d8565b811461072857600080fd5b50565b60008135905061073a81610714565b92915050565b6000602082840312156107565761075561044c565b5b60006107648482850161072b565b91505092915050565b6000813561077a8161045b565b80915050919050565b60008160001b9050919050565b60007fffffffffffffffffffffffffffffffffffffffffffffffffffffffffffffffff6107bc84610783565b9350801983169250808416831791505092915050565b6000819050919050565b60006107f76107f26107ed84610451565b6107d2565b610451565b9050919050565b6000819050919050565b610811826107dc565b61082461081d826107fe565b8354610790565b8255505050565b610834816104c3565b811461083f57600080fd5b50565b6000813561084f8161082b565b80915050919050565b600060ff61086584610783565b9350801983169250808416831791505092915050565b6000610886826104c3565b9050919050565b6000819050919050565b6108a08261087b565b6108b36108ac8261088d565b8354610858565b8255505050565b6000810160008301806108cc8161076d565b90506108d88184610808565b5050506001810160208301806108ed8161076d565b90506108f98184610808565b50505060028101604083018061090e8161076d565b905061091a8184610808565b50505060038101606083018061092f81610842565b905061093b8184610897565b5050505050565b61094c82826108ba565b5050565b600082825260208201905092915050565b7f4f776e61626c653a206e6577206f776e657220697320746865207a65726f206160008201527f6464726573730000000000000000000000000000000000000000000000000000602082015250565b60006109bd602683610950565b91506109c882610961565b604082019050919050565b600060208201905081810360008301526109ec816109b0565b9050919050565b7f4f776e61626c653a2063616c6c6572206973206e6f7420746865206f776e6572600082015250565b6000610a29602083610950565b9150610a34826109f3565b602082019050919050565b60006020820190508181036000830152610a5881610a1c565b905091905056fea2646970667358221220840bf1330734c7d8b9836bec82fc9420111d2787b126cd3967c2e08ac622423264736f6c63430008120033",
    "linkReferences": {},
    "deployedLinkReferences": {}
}